{
    "contractName": "StakingContract",
    "abi": [
        {
            "inputs": [
                {
                    "internalType": "address",
                    "name": "whiteTokenAddress",
                    "type": "address"
                }
            ],
            "stateMutability": "nonpayable",
            "type": "constructor"
        },
        {
            "anonymous": false,
            "inputs": [
                {
                    "indexed": true,
                    "internalType": "address",
                    "name": "previousOwner",
                    "type": "address"
                },
                {
                    "indexed": true,
                    "internalType": "address",
                    "name": "newOwner",
                    "type": "address"
                }
            ],
            "name": "OwnershipTransferred",
            "type": "event"
        },
        {
            "inputs": [
                {
                    "internalType": "uint256",
                    "name": "",
                    "type": "uint256"
                }
            ],
            "name": "enabledTokens",
            "outputs": [
                {
                    "internalType": "address",
                    "name": "",
                    "type": "address"
                }
            ],
            "stateMutability": "view",
            "type": "function",
            "constant": true
        },
        {
            "inputs": [
                {
                    "internalType": "address",
                    "name": "",
                    "type": "address"
                },
                {
                    "internalType": "address",
                    "name": "",
                    "type": "address"
                }
            ],
            "name": "erc20Earnings",
            "outputs": [
                {
                    "internalType": "uint256",
                    "name": "",
                    "type": "uint256"
                }
            ],
            "stateMutability": "view",
            "type": "function",
            "constant": true
        },
        {
            "inputs": [],
            "name": "owner",
            "outputs": [
                {
                    "internalType": "address",
                    "name": "",
                    "type": "address"
                }
            ],
            "stateMutability": "view",
            "type": "function",
            "constant": true
        },
        {
            "inputs": [],
            "name": "renounceOwnership",
            "outputs": [],
            "stateMutability": "nonpayable",
            "type": "function"
        },
        {
            "inputs": [
                {
                    "internalType": "uint256",
                    "name": "",
                    "type": "uint256"
                }
            ],
            "name": "stakerAddresses",
            "outputs": [
                {
                    "internalType": "address",
                    "name": "",
                    "type": "address"
                }
            ],
            "stateMutability": "view",
            "type": "function",
            "constant": true
        },
        {
            "inputs": [
                {
                    "internalType": "address",
                    "name": "",
                    "type": "address"
                }
            ],
            "name": "stakers",
            "outputs": [
                {
                    "internalType": "uint256",
                    "name": "amount",
                    "type": "uint256"
                },
                {
                    "internalType": "uint256",
                    "name": "earnings",
                    "type": "uint256"
                }
            ],
            "stateMutability": "view",
            "type": "function",
            "constant": true
        },
        {
            "inputs": [
                {
                    "internalType": "address",
                    "name": "",
                    "type": "address"
                }
            ],
            "name": "tokens",
            "outputs": [
                {
                    "internalType": "bool",
                    "name": "isEnabled",
                    "type": "bool"
                },
                {
                    "internalType": "uint256",
                    "name": "totalDeposited",
                    "type": "uint256"
                }
            ],
            "stateMutability": "view",
            "type": "function",
            "constant": true
        },
        {
            "inputs": [],
            "name": "totalEarnings",
            "outputs": [
                {
                    "internalType": "uint256",
                    "name": "",
                    "type": "uint256"
                }
            ],
            "stateMutability": "view",
            "type": "function",
            "constant": true
        },
        {
            "inputs": [],
            "name": "totalStaked",
            "outputs": [
                {
                    "internalType": "uint256",
                    "name": "",
                    "type": "uint256"
                }
            ],
            "stateMutability": "view",
            "type": "function",
            "constant": true
        },
        {
            "inputs": [
                {
                    "internalType": "address",
                    "name": "newOwner",
                    "type": "address"
                }
            ],
            "name": "transferOwnership",
            "outputs": [],
            "stateMutability": "nonpayable",
            "type": "function"
        },
        {
            "inputs": [],
            "name": "whiteTokenContract",
            "outputs": [
                {
                    "internalType": "contract WhiteToken",
                    "name": "",
                    "type": "address"
                }
            ],
            "stateMutability": "view",
            "type": "function",
            "constant": true
        },
        {
            "inputs": [],
            "name": "whiteTokenInterface",
            "outputs": [
                {
                    "internalType": "contract IERC20",
                    "name": "",
                    "type": "address"
                }
            ],
            "stateMutability": "view",
            "type": "function",
            "constant": true
        },
        {
            "inputs": [
                {
                    "internalType": "uint256",
                    "name": "amount",
                    "type": "uint256"
                }
            ],
            "name": "stake",
            "outputs": [],
            "stateMutability": "nonpayable",
            "type": "function"
        },
        {
            "inputs": [],
            "name": "unstake",
            "outputs": [],
            "stateMutability": "nonpayable",
            "type": "function"
        },
        {
            "inputs": [],
            "name": "harvest",
            "outputs": [],
            "stateMutability": "nonpayable",
            "type": "function"
        },
        {
            "inputs": [
                {
                    "internalType": "address",
                    "name": "tokenAddress",
                    "type": "address"
                }
            ],
            "name": "enableToken",
            "outputs": [],
            "stateMutability": "nonpayable",
            "type": "function"
        },
        {
            "inputs": [
                {
                    "internalType": "address",
                    "name": "tokenAddress",
                    "type": "address"
                }
            ],
            "name": "disableToken",
            "outputs": [],
            "stateMutability": "nonpayable",
            "type": "function"
        },
        {
            "inputs": [],
            "name": "deposit",
            "outputs": [],
            "stateMutability": "payable",
            "type": "function",
            "payable": true
        },
        {
            "inputs": [
                {
                    "internalType": "address",
                    "name": "tokenAddress",
                    "type": "address"
                },
                {
                    "internalType": "uint256",
                    "name": "depositAmount",
                    "type": "uint256"
                }
            ],
            "name": "depositERC20",
            "outputs": [],
            "stateMutability": "nonpayable",
            "type": "function"
        },
        {
            "inputs": [
                {
                    "internalType": "address",
                    "name": "tokenAddress",
                    "type": "address"
                }
            ],
            "name": "getTotalDeposited",
            "outputs": [
                {
                    "internalType": "uint256",
                    "name": "",
                    "type": "uint256"
                }
            ],
            "stateMutability": "view",
            "type": "function",
            "constant": true
        },
        {
            "inputs": [
                {
                    "internalType": "address",
                    "name": "user",
                    "type": "address"
                },
                {
                    "internalType": "address",
                    "name": "tokenAddress",
                    "type": "address"
                }
            ],
            "name": "getUserEarnings",
            "outputs": [
                {
                    "internalType": "uint256",
                    "name": "bnbEarningsAmount",
                    "type": "uint256"
                },
                {
                    "internalType": "uint256",
                    "name": "erc20EarningsAmount",
                    "type": "uint256"
                }
            ],
            "stateMutability": "view",
            "type": "function",
            "constant": true
        },
        {
            "inputs": [],
            "name": "getTotalEarnings",
            "outputs": [
                {
                    "internalType": "uint256",
                    "name": "totalBnbEarnings",
                    "type": "uint256"
                },
                {
                    "internalType": "uint256[]",
                    "name": "totalErc20Earnings",
                    "type": "uint256[]"
                },
                {
                    "internalType": "address[]",
                    "name": "erc20Tokens",
                    "type": "address[]"
                }
            ],
            "stateMutability": "view",
            "type": "function",
            "constant": true
        }
    ],
    "bytecode": "0x60a06040523480156200001157600080fd5b50604051620026d9380380620026d9833981810160405260208110156200003757600080fd5b8101908080519060200190929190505050620000686200005c620000e760201b60201c565b620000ef60201b60201c565b8073ffffffffffffffffffffffffffffffffffffffff1660808173ffffffffffffffffffffffffffffffffffffffff1660601b8152505080600160006101000a81548173ffffffffffffffffffffffffffffffffffffffff021916908373ffffffffffffffffffffffffffffffffffffffff16021790555050620001b3565b600033905090565b60008060009054906101000a900473ffffffffffffffffffffffffffffffffffffffff169050816000806101000a81548173ffffffffffffffffffffffffffffffffffffffff021916908373ffffffffffffffffffffffffffffffffffffffff1602179055508173ffffffffffffffffffffffffffffffffffffffff168173ffffffffffffffffffffffffffffffffffffffff167f8be0079c531659141344cd1fd0a4f28419497f9722a3daafe3b4186f6b6457e060405160405180910390a35050565b60805160601c612503620001d660003980610bc952806111ba52506125036000f3fe6080604052600436106101355760003560e01c80639168ae72116100ab578063c4fb03991161006f578063c4fb03991461059f578063c690908a1461062b578063d0e30db01461067c578063d21f954314610686578063e486033914610741578063f2fde38b146107af57610135565b80639168ae72146103b35780639463e0681461041f57806397feb92614610484578063a0e8b985146104df578063a694fc3a1461056457610135565b80634641257d116100fd5780634641257d146102975780634eda3d59146102ae578063715018a6146102ef5780637856878214610306578063817b1cd2146103475780638da5cb5b1461037257610135565b80630c9c31bd1461013a57806323e27a641461019f5780632def6620146101f05780632df3eba414610207578063459598a214610232575b600080fd5b34801561014657600080fd5b506101896004803603602081101561015d57600080fd5b81019080803573ffffffffffffffffffffffffffffffffffffffff169060200190929190505050610800565b6040518082815260200191505060405180910390f35b3480156101ab57600080fd5b506101ee600480360360208110156101c257600080fd5b81019080803573ffffffffffffffffffffffffffffffffffffffff16906020019092919050505061084c565b005b3480156101fc57600080fd5b506102056108b2565b005b34801561021357600080fd5b5061021c610b3d565b6040518082815260200191505060405180910390f35b34801561023e57600080fd5b5061026b6004803603602081101561025557600080fd5b8101908080359060200190929190505050610b43565b604051808273ffffffffffffffffffffffffffffffffffffffff16815260200191505060405180910390f35b3480156102a357600080fd5b506102ac610b82565b005b3480156102ba57600080fd5b506102c3610b8d565b604051808273ffffffffffffffffffffffffffffffffffffffff16815260200191505060405180910390f35b3480156102fb57600080fd5b50610304610bb3565b005b34801561031257600080fd5b5061031b610bc7565b604051808273ffffffffffffffffffffffffffffffffffffffff16815260200191505060405180910390f35b34801561035357600080fd5b5061035c610beb565b6040518082815260200191505060405180910390f35b34801561037e57600080fd5b50610387610bf1565b604051808273ffffffffffffffffffffffffffffffffffffffff16815260200191505060405180910390f35b3480156103bf57600080fd5b50610402600480360360208110156103d657600080fd5b81019080803573ffffffffffffffffffffffffffffffffffffffff169060200190929190505050610c1a565b604051808381526020018281526020019250505060405180910390f35b34801561042b57600080fd5b506104586004803603602081101561044257600080fd5b8101908080359060200190929190505050610c3e565b604051808273ffffffffffffffffffffffffffffffffffffffff16815260200191505060405180910390f35b34801561049057600080fd5b506104dd600480360360408110156104a757600080fd5b81019080803573ffffffffffffffffffffffffffffffffffffffff16906020019092919080359060200190929190505050610c7d565b005b3480156104eb57600080fd5b5061054e6004803603604081101561050257600080fd5b81019080803573ffffffffffffffffffffffffffffffffffffffff169060200190929190803573ffffffffffffffffffffffffffffffffffffffff16906020019092919050505061118e565b6040518082815260200191505060405180910390f35b34801561057057600080fd5b5061059d6004803603602081101561058757600080fd5b81019080803590602001909291905050506111b3565b005b3480156105ab57600080fd5b5061060e600480360360408110156105c257600080fd5b81019080803573ffffffffffffffffffffffffffffffffffffffff169060200190929190803573ffffffffffffffffffffffffffffffffffffffff169060200190929190505050611689565b604051808381526020018281526020019250505060405180910390f35b34801561063757600080fd5b5061067a6004803603602081101561064e57600080fd5b81019080803573ffffffffffffffffffffffffffffffffffffffff16906020019092919050505061175d565b005b6106846117c3565b005b34801561069257600080fd5b5061069b6119ca565b604051808481526020018060200180602001838103835285818151815260200191508051906020019060200280838360005b838110156106e85780820151818401526020810190506106cd565b50505050905001838103825284818151815260200191508051906020019060200280838360005b8381101561072a57808201518184015260208101905061070f565b505050509050019550505050505060405180910390f35b34801561074d57600080fd5b506107906004803603602081101561076457600080fd5b81019080803573ffffffffffffffffffffffffffffffffffffffff169060200190929190505050611b6c565b6040518083151581526020018281526020019250505060405180910390f35b3480156107bb57600080fd5b506107fe600480360360208110156107d257600080fd5b81019080803573ffffffffffffffffffffffffffffffffffffffff169060200190929190505050611b9d565b005b6000600360008373ffffffffffffffffffffffffffffffffffffffff1673ffffffffffffffffffffffffffffffffffffffff168152602001908152602001600020600101549050919050565b610854611c37565b6000600360008373ffffffffffffffffffffffffffffffffffffffff1673ffffffffffffffffffffffffffffffffffffffff16815260200190815260200160002060000160006101000a81548160ff02191690831515021790555050565b6000600260003373ffffffffffffffffffffffffffffffffffffffff1673ffffffffffffffffffffffffffffffffffffffff1681526020019081526020016000209050600081600001541161096f576040517f08c379a00000000000000000000000000000000000000000000000000000000081526004018080602001828103825260128152602001807f4e6f207374616b696e672062616c616e6365000000000000000000000000000081525060200191505060405180910390fd5b61097833611ce8565b600160009054906101000a900473ffffffffffffffffffffffffffffffffffffffff1673ffffffffffffffffffffffffffffffffffffffff1663a9059cbb3383600001546040518363ffffffff1660e01b8152600401808373ffffffffffffffffffffffffffffffffffffffff16815260200182815260200192505050602060405180830381600087803b158015610a0f57600080fd5b505af1158015610a23573d6000803e3d6000fd5b505050506040513d6020811015610a3957600080fd5b8101908080519060200190929190505050610abc576040517f08c379a000000000000000000000000000000000000000000000000000000000815260040180806020018281038252601a8152602001807f5768697465546f6b656e207472616e73666572206661696c656400000000000081525060200191505060405180910390fd5b610ad5816000015460075461204090919063ffffffff16565b600781905550600081600001819055506000600260003373ffffffffffffffffffffffffffffffffffffffff1673ffffffffffffffffffffffffffffffffffffffff168152602001908152602001600020600001541415610b3a57610b39336120c3565b5b50565b60085481565b60068181548110610b5357600080fd5b906000526020600020016000915054906101000a900473ffffffffffffffffffffffffffffffffffffffff1681565b610b8b33611ce8565b565b600160009054906101000a900473ffffffffffffffffffffffffffffffffffffffff1681565b610bbb611c37565b610bc5600061222a565b565b7f000000000000000000000000000000000000000000000000000000000000000081565b60075481565b60008060009054906101000a900473ffffffffffffffffffffffffffffffffffffffff16905090565b60026020528060005260406000206000915090508060000154908060010154905082565b60058181548110610c4e57600080fd5b906000526020600020016000915054906101000a900473ffffffffffffffffffffffffffffffffffffffff1681565b600360008373ffffffffffffffffffffffffffffffffffffffff1673ffffffffffffffffffffffffffffffffffffffff16815260200190815260200160002060000160009054906101000a900460ff16610d3f576040517f08c379a00000000000000000000000000000000000000000000000000000000081526004018080602001828103825260118152602001807f546f6b656e206e6f7420656e61626c656400000000000000000000000000000081525060200191505060405180910390fd5b60008111610db5576040517f08c379a00000000000000000000000000000000000000000000000000000000081526004018080602001828103825260148152602001807f4e6f20455243323020746f6b656e732073656e7400000000000000000000000081525060200191505060405180910390fd5b60008290508073ffffffffffffffffffffffffffffffffffffffff166323b872dd3330856040518463ffffffff1660e01b8152600401808473ffffffffffffffffffffffffffffffffffffffff1681526020018373ffffffffffffffffffffffffffffffffffffffff1681526020018281526020019350505050602060405180830381600087803b158015610e4957600080fd5b505af1158015610e5d573d6000803e3d6000fd5b505050506040513d6020811015610e7357600080fd5b8101908080519060200190929190505050610ef6576040517f08c379a000000000000000000000000000000000000000000000000000000000815260040180806020018281038252600f8152602001807f5472616e73666572206661696c6564000000000000000000000000000000000081525060200191505060405180910390fd5b600060075411156110ee5760005b6006805490508110156110ec57600060068281548110610f2057fe5b9060005260206000200160009054906101000a900473ffffffffffffffffffffffffffffffffffffffff1690506000600260008373ffffffffffffffffffffffffffffffffffffffff1673ffffffffffffffffffffffffffffffffffffffff16815260200190815260200160002090506000816000015411156110dd576000610fca600754610fbc8460000154896122ee90919063ffffffff16565b61237090919063ffffffff16565b905061105b81600460008673ffffffffffffffffffffffffffffffffffffffff1673ffffffffffffffffffffffffffffffffffffffff16815260200190815260200160002060008a73ffffffffffffffffffffffffffffffffffffffff1673ffffffffffffffffffffffffffffffffffffffff168152602001908152602001600020546123f990919063ffffffff16565b600460008573ffffffffffffffffffffffffffffffffffffffff1673ffffffffffffffffffffffffffffffffffffffff16815260200190815260200160002060008973ffffffffffffffffffffffffffffffffffffffff1673ffffffffffffffffffffffffffffffffffffffff16815260200190815260200160002081905550505b50508080600101915050610f04565b505b61114382600360008673ffffffffffffffffffffffffffffffffffffffff1673ffffffffffffffffffffffffffffffffffffffff168152602001908152602001600020600101546123f990919063ffffffff16565b600360008573ffffffffffffffffffffffffffffffffffffffff1673ffffffffffffffffffffffffffffffffffffffff16815260200190815260200160002060010181905550505050565b6004602052816000526040600020602052806000526040600020600091509150505481565b600061126e7f000000000000000000000000000000000000000000000000000000000000000073ffffffffffffffffffffffffffffffffffffffff1663313ce5676040518163ffffffff1660e01b815260040160206040518083038186803b15801561121e57600080fd5b505afa158015611232573d6000803e3d6000fd5b505050506040513d602081101561124857600080fd5b810190808051906020019092919050505060ff16600a0a836122ee90919063ffffffff16565b90506000611299606461128b6005856122ee90919063ffffffff16565b61237090919063ffffffff16565b905060006112b0828461204090919063ffffffff16565b9050600160009054906101000a900473ffffffffffffffffffffffffffffffffffffffff1673ffffffffffffffffffffffffffffffffffffffff166323b872dd3330866040518463ffffffff1660e01b8152600401808473ffffffffffffffffffffffffffffffffffffffff1681526020018373ffffffffffffffffffffffffffffffffffffffff1681526020018281526020019350505050602060405180830381600087803b15801561136357600080fd5b505af1158015611377573d6000803e3d6000fd5b505050506040513d602081101561138d57600080fd5b8101908080519060200190929190505050611410576040517f08c379a000000000000000000000000000000000000000000000000000000000815260040180806020018281038252600f8152602001807f5472616e73666572206661696c6564000000000000000000000000000000000081525060200191505060405180910390fd5b600160009054906101000a900473ffffffffffffffffffffffffffffffffffffffff1673ffffffffffffffffffffffffffffffffffffffff1663a9059cbb611456610bf1565b846040518363ffffffff1660e01b8152600401808373ffffffffffffffffffffffffffffffffffffffff16815260200182815260200192505050602060405180830381600087803b1580156114aa57600080fd5b505af11580156114be573d6000803e3d6000fd5b505050506040513d60208110156114d457600080fd5b8101908080519060200190929190505050611557576040517f08c379a000000000000000000000000000000000000000000000000000000000815260040180806020018281038252601a8152602001807f436f6d6d697373696f6e207472616e73666572206661696c656400000000000081525060200191505060405180910390fd5b6000600260003373ffffffffffffffffffffffffffffffffffffffff1673ffffffffffffffffffffffffffffffffffffffff16815260200190815260200160002090506115b18282600001546123f990919063ffffffff16565b81600001819055506115ce826007546123f990919063ffffffff16565b60078190555081600260003373ffffffffffffffffffffffffffffffffffffffff1673ffffffffffffffffffffffffffffffffffffffff168152602001908152602001600020600001541415611682576006339080600181540180825580915050600190039060005260206000200160009091909190916101000a81548173ffffffffffffffffffffffffffffffffffffffff021916908373ffffffffffffffffffffffffffffffffffffffff1602179055505b5050505050565b6000806000600260008673ffffffffffffffffffffffffffffffffffffffff1673ffffffffffffffffffffffffffffffffffffffff168152602001908152602001600020905080600101549250600460008673ffffffffffffffffffffffffffffffffffffffff1673ffffffffffffffffffffffffffffffffffffffff16815260200190815260200160002060008573ffffffffffffffffffffffffffffffffffffffff1673ffffffffffffffffffffffffffffffffffffffff168152602001908152602001600020549150509250929050565b611765611c37565b6001600360008373ffffffffffffffffffffffffffffffffffffffff1673ffffffffffffffffffffffffffffffffffffffff16815260200190815260200160002060000160006101000a81548160ff02191690831515021790555050565b60003411611839576040517f08c379a000000000000000000000000000000000000000000000000000000000815260040180806020018281038252600b8152602001807f4e6f20424e422073656e7400000000000000000000000000000000000000000081525060200191505060405180910390fd5b6000600754116118b1576040517f08c379a00000000000000000000000000000000000000000000000000000000081526004018080602001828103825260158152602001807f4e6f205768697465546f6b656e73207374616b6564000000000000000000000081525060200191505060405180910390fd5b60005b6006805490508110156119ac576000600682815481106118d057fe5b9060005260206000200160009054906101000a900473ffffffffffffffffffffffffffffffffffffffff1690506000600260008373ffffffffffffffffffffffffffffffffffffffff1673ffffffffffffffffffffffffffffffffffffffff168152602001908152602001600020905060008160000154111561199d57600061197a60075461196c8460000154346122ee90919063ffffffff16565b61237090919063ffffffff16565b90506119938183600101546123f990919063ffffffff16565b8260010181905550505b505080806001019150506118b4565b506119c2346008546123f990919063ffffffff16565b600881905550565b600060608060085492506005805480602002602001604051908101604052809291908181526020018280548015611a5657602002820191906000526020600020905b8160009054906101000a900473ffffffffffffffffffffffffffffffffffffffff1673ffffffffffffffffffffffffffffffffffffffff1681526020019060010190808311611a0c575b5050505050905060058054905067ffffffffffffffff81118015611a7957600080fd5b50604051908082528060200260200182016040528015611aa85781602001602082028036833780820191505090505b50915060005b600580549050811015611b6657600060058281548110611aca57fe5b9060005260206000200160009054906101000a900473ffffffffffffffffffffffffffffffffffffffff1690506000600360008373ffffffffffffffffffffffffffffffffffffffff1673ffffffffffffffffffffffffffffffffffffffff16815260200190815260200160002060010154905080858481518110611b4b57fe5b60200260200101818152505050508080600101915050611aae565b50909192565b60036020528060005260406000206000915090508060000160009054906101000a900460ff16908060010154905082565b611ba5611c37565b600073ffffffffffffffffffffffffffffffffffffffff168173ffffffffffffffffffffffffffffffffffffffff161415611c2b576040517f08c379a00000000000000000000000000000000000000000000000000000000081526004018080602001828103825260268152602001806124876026913960400191505060405180910390fd5b611c348161222a565b50565b611c3f61247e565b73ffffffffffffffffffffffffffffffffffffffff16611c5d610bf1565b73ffffffffffffffffffffffffffffffffffffffff1614611ce6576040517f08c379a00000000000000000000000000000000000000000000000000000000081526004018080602001828103825260208152602001807f4f776e61626c653a2063616c6c6572206973206e6f7420746865206f776e657281525060200191505060405180910390fd5b565b6000600260008373ffffffffffffffffffffffffffffffffffffffff1673ffffffffffffffffffffffffffffffffffffffff16815260200190815260200160002090506000816001015490506000811115611e25576000826001018190555060008373ffffffffffffffffffffffffffffffffffffffff168260405180600001905060006040518083038185875af1925050503d8060008114611da7576040519150601f19603f3d011682016040523d82523d6000602084013e611dac565b606091505b5050905080611e23576040517f08c379a00000000000000000000000000000000000000000000000000000000081526004018080602001828103825260138152602001807f424e42205472616e73666572206661696c65640000000000000000000000000081525060200191505060405180910390fd5b505b60005b60058054905081101561203a57600060058281548110611e4457fe5b9060005260206000200160009054906101000a900473ffffffffffffffffffffffffffffffffffffffff1690506000600460008773ffffffffffffffffffffffffffffffffffffffff1673ffffffffffffffffffffffffffffffffffffffff16815260200190815260200160002060008373ffffffffffffffffffffffffffffffffffffffff1673ffffffffffffffffffffffffffffffffffffffff168152602001908152602001600020549050600081111561202b576000600460008873ffffffffffffffffffffffffffffffffffffffff1673ffffffffffffffffffffffffffffffffffffffff16815260200190815260200160002060008473ffffffffffffffffffffffffffffffffffffffff1673ffffffffffffffffffffffffffffffffffffffff168152602001908152602001600020819055508173ffffffffffffffffffffffffffffffffffffffff1663a9059cbb87836040518363ffffffff1660e01b8152600401808373ffffffffffffffffffffffffffffffffffffffff16815260200182815260200192505050602060405180830381600087803b158015611fee57600080fd5b505af1158015612002573d6000803e3d6000fd5b505050506040513d602081101561201857600080fd5b8101908080519060200190929190505050505b50508080600101915050611e28565b50505050565b6000828211156120b8576040517f08c379a000000000000000000000000000000000000000000000000000000000815260040180806020018281038252601e8152602001807f536166654d6174683a207375627472616374696f6e206f766572666c6f77000081525060200191505060405180910390fd5b818303905092915050565b6000600680549050905060005b81811015612225578273ffffffffffffffffffffffffffffffffffffffff16600682815481106120fc57fe5b9060005260206000200160009054906101000a900473ffffffffffffffffffffffffffffffffffffffff1673ffffffffffffffffffffffffffffffffffffffff161415612218576006600183038154811061215357fe5b9060005260206000200160009054906101000a900473ffffffffffffffffffffffffffffffffffffffff166006828154811061218b57fe5b9060005260206000200160006101000a81548173ffffffffffffffffffffffffffffffffffffffff021916908373ffffffffffffffffffffffffffffffffffffffff16021790555060068054806121de57fe5b6001900381819060005260206000200160006101000a81549073ffffffffffffffffffffffffffffffffffffffff02191690559055612225565b80806001019150506120d0565b505050565b60008060009054906101000a900473ffffffffffffffffffffffffffffffffffffffff169050816000806101000a81548173ffffffffffffffffffffffffffffffffffffffff021916908373ffffffffffffffffffffffffffffffffffffffff1602179055508173ffffffffffffffffffffffffffffffffffffffff168173ffffffffffffffffffffffffffffffffffffffff167f8be0079c531659141344cd1fd0a4f28419497f9722a3daafe3b4186f6b6457e060405160405180910390a35050565b600080831415612301576000905061236a565b81838385028161230d57fe5b0414612364576040517f08c379a00000000000000000000000000000000000000000000000000000000081526004018080602001828103825260218152602001806124ad6021913960400191505060405180910390fd5b81830290505b92915050565b60008082116123e7576040517f08c379a000000000000000000000000000000000000000000000000000000000815260040180806020018281038252601a8152602001807f536166654d6174683a206469766973696f6e206279207a65726f00000000000081525060200191505060405180910390fd5b8183816123f057fe5b04905092915050565b6000828284011015612473576040517f08c379a000000000000000000000000000000000000000000000000000000000815260040180806020018281038252601b8152602001807f536166654d6174683a206164646974696f6e206f766572666c6f77000000000081525060200191505060405180910390fd5b818301905092915050565b60003390509056fe4f776e61626c653a206e6577206f776e657220697320746865207a65726f2061646472657373536166654d6174683a206d756c7469706c69636174696f6e206f766572666c6f77a264697066735822122013300ef98c4df77ed7ece0d269234bbe497102edf1fc7877c9263ca4bbbf2be464736f6c63430007060033",
    "immutableReferences": {
        "2961": [
            {
                "length": 32,
                "start": 3017
            },
            {
                "length": 32,
                "start": 4538
            }
        ]
    },
    "source": "// SPDX-License-Identifier: MIT\r\npragma solidity ^0.7.6;\r\n\r\nimport \"@openzeppelin/contracts/access/Ownable.sol\";\r\nimport \"@openzeppelin/contracts/utils/math/SafeMath.sol\";\r\nimport \"./WhiteToken.sol\";\r\nimport \"./IStakingContract.sol\";\r\n\r\ncontract StakingContract is Ownable {\r\n    using SafeMath for uint256;\r\n\r\n    WhiteToken public immutable whiteTokenContract;\r\n    IERC20 public whiteTokenInterface;\r\n    struct Stake {\r\n        uint256 amount;\r\n        uint256 earnings;\r\n    }\r\n\r\n    struct TokenInfo {\r\n        bool isEnabled;\r\n        uint256 totalDeposited;\r\n    }\r\n\r\n    mapping(address => Stake) public stakers;\r\n    mapping(address => TokenInfo) public tokens;\r\n    mapping(address => mapping(address => uint256)) public erc20Earnings;\r\n    address[] public enabledTokens;\r\n    address[] public stakerAddresses;\r\n    uint256 public totalStaked;\r\n    uint256 public totalEarnings;\r\n\r\n    constructor(address whiteTokenAddress) {\r\n        whiteTokenContract = WhiteToken(whiteTokenAddress);\r\n        whiteTokenInterface = IERC20(whiteTokenAddress);\r\n    }\r\n\r\n    function stake(uint256 amount) external {\r\n        uint256 amountInWei = amount.mul(10**uint256(whiteTokenContract.decimals()));\r\n        uint256 commission = amountInWei.mul(5).div(100);\r\n        uint256 amountAfterCommission = amountInWei.sub(commission);\r\n\r\n        require(whiteTokenInterface.transferFrom(msg.sender, address(this), amountInWei), \"Transfer failed\");\r\n        require(whiteTokenInterface.transfer(owner(), commission), \"Commission transfer failed\");\r\n\r\n        Stake storage staker = stakers[msg.sender];\r\n        staker.amount = staker.amount.add(amountAfterCommission);\r\n        totalStaked = totalStaked.add(amountAfterCommission);\r\n        if (stakers[msg.sender].amount == amountAfterCommission) {\r\n            stakerAddresses.push(msg.sender);\r\n        }\r\n}\r\n    function unstake() external {\r\n    Stake storage staker = stakers[msg.sender];\r\n    require(staker.amount > 0, \"No staking balance\");\r\n\r\n    _withdrawEarnings(msg.sender);\r\n    require(whiteTokenInterface.transfer(msg.sender, staker.amount), \"WhiteToken transfer failed\");\r\n    totalStaked = totalStaked.sub(staker.amount);\r\n    staker.amount = 0;\r\n        if (stakers[msg.sender].amount == 0) {\r\n            _removeStakerAddress(msg.sender);\r\n        }\r\n    }\r\n\r\n    function harvest() external {\r\n        _withdrawEarnings(msg.sender);\r\n    }\r\n\r\nfunction _withdrawEarnings(address user) private {\r\n    Stake storage staker = stakers[user];\r\n    \r\n    uint256 bnbEarnings = staker.earnings;\r\n    if (bnbEarnings > 0) {\r\n        staker.earnings = 0;\r\n        (bool success, ) = payable(user).call{value: bnbEarnings}(\"\");\r\n        require(success, \"BNB Transfer failed\");\r\n    }\r\n\r\n    for (uint256 i = 0; i < enabledTokens.length; i++) {\r\n        address tokenAddress = enabledTokens[i];\r\n        uint256 tokenEarnings = erc20Earnings[user][tokenAddress];\r\n        if (tokenEarnings > 0) {\r\n            erc20Earnings[user][tokenAddress] = 0;\r\n            IERC20(tokenAddress).transfer(user, tokenEarnings);\r\n        }\r\n    }\r\n}\r\n\r\n    function _removeStakerAddress(address stakerAddress) private {\r\n        uint256 length = stakerAddresses.length;\r\n        for (uint256 i = 0; i < length; i++) {\r\n            if (stakerAddresses[i] == stakerAddress) {\r\n                stakerAddresses[i] = stakerAddresses[length - 1];\r\n                stakerAddresses.pop();\r\n                break;\r\n            }\r\n        }\r\n    }\r\n\r\n    function enableToken(address tokenAddress) external onlyOwner {\r\n        tokens[tokenAddress].isEnabled = true;\r\n    }\r\n\r\n    function disableToken(address tokenAddress) external onlyOwner {\r\n        tokens[tokenAddress].isEnabled = false;\r\n    }\r\n\r\nfunction deposit() external payable {\r\n    require(msg.value > 0, \"No BNB sent\");\r\n    require(totalStaked > 0, \"No WhiteTokens staked\");\r\n\r\n    for (uint i = 0; i < stakerAddresses.length; i++) {\r\n        address stakerAddress = stakerAddresses[i];\r\n        Stake storage staker = stakers[stakerAddress];\r\n        if (staker.amount > 0) {\r\n            uint256 share = msg.value.mul(staker.amount).div(totalStaked);\r\n            staker.earnings = staker.earnings.add(share);\r\n        }\r\n    }\r\n\r\n    totalEarnings = totalEarnings.add(msg.value);\r\n}\r\n\r\nfunction depositERC20(address tokenAddress, uint256 depositAmount) external {\r\n    require(tokens[tokenAddress].isEnabled, \"Token not enabled\");\r\n    require(depositAmount > 0, \"No ERC20 tokens sent\");\r\n\r\n    IERC20 token = IERC20(tokenAddress);\r\n    require(token.transferFrom(msg.sender, address(this), depositAmount), \"Transfer failed\");\r\n    if (totalStaked > 0) {\r\n        for (uint i = 0; i < stakerAddresses.length; i++) {\r\n            address stakerAddress = stakerAddresses[i];\r\n            Stake storage staker = stakers[stakerAddress];\r\n            if (staker.amount > 0) {\r\n                uint256 share = depositAmount.mul(staker.amount).div(totalStaked);\r\n                erc20Earnings[stakerAddress][tokenAddress] = erc20Earnings[stakerAddress][tokenAddress].add(share);\r\n            }\r\n        }\r\n    }\r\n\r\n    tokens[tokenAddress].totalDeposited = tokens[tokenAddress].totalDeposited.add(depositAmount);\r\n}\r\n\r\n    function getTotalDeposited(address tokenAddress) external view returns (uint256) {\r\n        return tokens[tokenAddress].totalDeposited;\r\n    }\r\n\r\nfunction getUserEarnings(address user, address tokenAddress) external view returns (uint256 bnbEarningsAmount, uint256 erc20EarningsAmount) {\r\n    Stake storage staker = stakers[user];\r\n    bnbEarningsAmount = staker.earnings;\r\n    erc20EarningsAmount = erc20Earnings[user][tokenAddress];\r\n}\r\n\r\nfunction getTotalEarnings() external view returns (uint256 totalBnbEarnings, uint256[] memory totalErc20Earnings, address[] memory erc20Tokens) {\r\n    totalBnbEarnings = totalEarnings;\r\n    erc20Tokens = enabledTokens;\r\n\r\n    totalErc20Earnings = new uint256[](enabledTokens.length);\r\n    for (uint256 i = 0; i < enabledTokens.length; i++) {\r\n        address tokenAddress = enabledTokens[i];\r\n        uint256 totalTokenEarnings = tokens[tokenAddress].totalDeposited;\r\n        totalErc20Earnings[i] = totalTokenEarnings;\r\n    }\r\n}\r\n\r\n}",
    "sourcePath": "C:\\Users\\orteg\\Desktop\\Proyecto 1\\contracts\\StakingContract.sol",
    "compiler": {
        "name": "solc",
        "version": "0.7.6+commit.7338295f.Emscripten.clang"
    },
    "schemaVersion": "3.4.15",
    "updatedAt": "2023-11-16T14:48:57.618Z",
    "networkType": "ethereum",
    "devdoc": {
        "kind": "dev",
        "methods": {
            "owner()": {
                "details": "Returns the address of the current owner."
            },
            "renounceOwnership()": {
                "details": "Leaves the contract without owner. It will not be possible to call `onlyOwner` functions. Can only be called by the current owner. NOTE: Renouncing ownership will leave the contract without an owner, thereby disabling any functionality that is only available to the owner."
            },
            "transferOwnership(address)": {
                "details": "Transfers ownership of the contract to a new account (`newOwner`). Can only be called by the current owner."
            }
        },
        "version": 1
    },
    "userdoc": {
        "kind": "user",
        "methods": {},
        "version": 1
    }
}